:020000040800F2
:10000000000500206D060008C9040008CB040008A4
:10001000CD040008CF040008D1040008000000004F
:10002000000000000000000000000000D3040008F1
:10003000D504000800000000D7040008D904000817
:10004000870600088706000887060008870600085C
:10005000870600088706000887060008870600084C
:10006000870600088706000887060008870600083C
:10007000870600088706000887060008870600082C
:10008000870600088706000887060008870600081C
:10009000870600088706000887060008870600080C
:1000A00087060008870600088706000887060008FC
:1000B0008706000825210008870600088706000833
:1000C00087060008870600088706000887060008DC
:1000D00087060008BD1E000887060008870600087E
:1000E00087060008870600088706000887060008BC
:1000F00087060008870600088706000887060008AC
:1001000087060008870600083D21000887060008CA
:10011000870600088706000887060008870600088B
:10012000870600088706000887060008870600087B
:10013000870600088706000887060008870600086B
:10014000870600088706000887060008870600085B
:10015000870600088706000887060008870600084B
:10016000870600088706000887060008870600083B
:10017000870600088706000887060008870600082B
:100180008706000887060008DFF80CD002F0A8FAFE
:10019000004800479D0100080005002001F0F0FF25
:1001A00002F008F8A82001F0CFFD41F6583001F028
:1001B0000CFE42F2CF014FF4FA6001F087FF4FF4DA
:1001C000E13001F025FE02F097F802F0C3F802F0EA
:1001D0006FF802F0EFF801F0F7FF02F01FF901F0FD
:1001E000E5FFB44EB44CB54DB54F4FF47A6B4FF4B8
:1001F000FA784FF00009307828B9002001F0F9FFB3
:100200003070C4F80490307838B3616829BB012895
:1002100002D0022811D020E001F0C8FF02F084F8DB
:10022000404601F0D2FD02F083F840F2DC5001F0CC
:10023000CCFD6068401C60600FE002F079F802F0CD
:1002400073F8404601F0C1FD02F072F840F2DC5054
:1002500001F0BBFD6068401C60603078012801D06F
:10026000022805D1287818B940F6B83002F066F8AF
:100270003078012802D12978012902D002287DD0C6
:10028000EDE0002002F085F8642001F09EFD0020E2
:1002900002F09EF80021384600F0F8FE40F6B83033
:1002A00002F077F8384600F0F5FE9628FAD30021E0
:1002B000384600F0EBFE834802F08AF8002002F096
:1002C00068F8642001F081FD584602F037F84FF4D9
:1002D000C87A384600F0DEFE5045FAD3002002F01E
:1002E0002DF84FF4C87002F073F8642001F06DFD32
:1002F000584602F04EF802F017F8404601F065FD4E
:1003000002F016F801F0E9FF0028FBD001F0E9FF48
:100310000028FBD0C82001F058FD002002F058F85A
:100320000021384600F0B2FE4FF48C7A384600F0D7
:10033000B1FE5045FAD3002002F000F80021384603
:1003400000F0A4FE01F0F0FF404601F03EFD01F098
:10035000EFFF41F2941001F038FD584601F0EEFF36
:100360000021384600F092FE384600F093FEFA284D
:10037000FAD34FF4C87002F02BF800E00DE0002132
:10038000384600F083FE40F21A4A384600F082FEFA
:100390005045FAD30120206061E0287801285ED121
:1003A0000021384600F072FE40F6B83001F0C6FF7A
:1003B0004FF4C87A384600F06DFE5045FAD300215C
:1003C000384600F063FE002001F0B8FF01F0ACFFFA
:1003D000C82001F0FDFF584601F0DBFF404601F068
:1003E000F4FC01F0A5FF01F078FF0028FBD06FF4CA
:1003F000A27001F0EDFF0021384600F047FE4FF4F7
:10040000167A384600F046FE5045FAD3002001F037
:10041000C0FF01F089FF404601F0D7FC01F088FFE2
:1004200041F2941001F0D1FC584601F087FF01F031
:1004300058FF0028FBD0404601F0C7FC40F24510B1
:1004400001F0C6FF0021384600F020FE40F2023ADB
:10045000384600F01FFE5045FAD301202060206886
:1004600001287FF4C8AE28780128FAD1002001F0D5
:10047000AFFF42F2CF014FF4FA6001F027FE0021F6
:10048000384600F003FE40F6B83001F057FF38461A
:1004900000F000FE4045FAD3002001F04FFF00219C
:1004A000384600F0F3FDC4F8009085F8009086F817
:1004B0000090A0E633000020000000203200002061
:1004C00000080040D4FEFFFF7047FEE7FEE7FEE7AE
:1004D000FEE7704770477047704700000CB5002278
:1004E000019200925849086840F4803008604FF447
:1004F000A043086800F4003000900198401C01906F
:10050000009810B901989842F3D10868800302D589
:100510000120009000E000920098012831D14A4863
:100520004030026842F0805202604848026842F45B
:10053000404202604448083002680260026842F4A7
:1005400000420260026842F4A0520260021F404B67
:1005500013600A6842F080720A600A689201FCD552
:100560003C4A40F205711160016821F0030101600D
:10057000016841F0020101600168C1F381010229B3
:10058000FAD10CBD10B53448016841F47001016026
:100590002D48016841F0010101602B4A0021083219
:1005A000116002682D4B1A400260031D2C4A1A602C
:1005B000026822F48022026023480C300160FFF7B9
:1005C0008DFF25494FF000608039086010BD70B57F
:1005D0001D4E0836306800F00C00224B22490028DE
:1005E0000FD05D1004280ED008280ED00B603068A4
:1005F0001D4AC0F30310121D105C0A68C2400A6055
:1006000070BD0B60F3E70D60F1E70F4A121D106833
:10061000C0F38054106800F03F0034B1B5FBF0F037
:100620001368C3F38813584305E0B3FBF0F0136875
:10063000C3F3881358431268C2F30142521C52009C
:10064000B0FBF2F00860D2E70038024000700040D2
:1006500008544007003C024088ED00E0FFFFF6FE32
:10066000103000240024F4000800002006488047D1
:1006700006480047FEE7FEE7FEE7FEE7FEE7FEE787
:10068000FEE7FEE7FEE7FEE78505000889010008B2
:100690002B4908432B490860704730B50F23C278B7
:1006A00001250178002A1FD0264A126802F4E06270
:1006B000C2F5E062C2F30722C2F10404D3404278DB
:1006C000A24084781C401443220101F1E02181F80A
:1006D0000024007800F01F018D404009800000F1E7
:1006E000E020C0F8005130BD01F01F0085404809EE
:1006F000800000F1E020C0F8805130BD124A114066
:1007000001431048001F016070470E4A121D002966
:1007100003D0116801431160704711688143116073
:1007200070474FF0E021042804D0086920F004004D
:1007300008617047086940F00400086170470000D4
:100740000000FA050CED00E080FFFF1F10B58D4999
:10075000884209D10121084600F0DBFA0021BDE8FA
:100760001040012000F0D5BA8749884209D1012103
:10077000022000F0CEFA0021BDE81040022000F077
:10078000C8BA8249884209D10121042000F0C1FA87
:100790000021BDE81040042000F0BBBA7C4988422B
:1007A00009D10121082000F0B4FA0021BDE8104071
:1007B000082000F0AEBA7749884209D10121102003
:1007C00000F0A7FA0021BDE81040102000F0A1BA07
:1007D0007149884209D10121202000F09AFA0021B4
:1007E000BDE81040202000F094BA6C49884209D13D
:1007F0000121402000F08DFA0021BDE8104040208A
:1008000000F087BA6649884209D10121802000F0B2
:1008100080FA0021BDE81040802000F07ABA6149DA
:1008200088420AD184150121204600F072FA204640
:10083000BDE81040002100F06CBA5B4988420AD143
:1008400044150121204600F064FA2046BDE810401E
:10085000002100F05EBA554988420AD104150121F1
:10086000204600F056FA2046BDE81040002100F076
:1008700050BA10BD2DE9F041002201274FF0030CC2
:1008800007FA02F50B682B40AB422CD106685300E7
:100890000CFA03F4A64306600E79D0F800809E405F
:1008A00046EA080606600E79012E01D0022E12D10A
:1008B0008668A64386604E79D0F808809E4046EA56
:1008C000080686604668AE43466045688E79964065
:1008D000B6B235434560C568A543C560CC799C4038
:1008E000C3681C43C460521C102AC9D3BDE8F08100
:1008F0004FF6FF7101600021017141718171C17179
:10090000704708B541F480320092009AC261C1611B
:100910000099C161C169C069009008BD024600200C
:1009200012690A4200D001207047006980B2704706
:100930000246002052690A4200D0012070474069F7
:1009400080B270470183704741837047002A01D00D
:1009500001837047418370474161704742694A4053
:100960004261704710B54B07DB0E9A40C90800EB97
:100970008100016A0F249C40A1430162016A114376
:10098000016210BD00000240000402400008024065
:10099000000C024000100240001402400018024007
:1009A000001C0240002002400024024000280240B7
:1009B000FA48016841F001010160F84A002108325B
:1009C00011600268F64B1A400260031DF54A1A6076
:1009D000F24BF54A84331A60F24A103A1B1D1A6032
:1009E000026822F480220260EC480C300160181D7D
:1009F00001607047E9490022891C0A70087070473D
:100A000002460020510901290CD002290DD0E349EA
:100A10007431096802F01F02012393400B4200D099
:100A200001207047DD490968F4E7DC497031096845
:100A3000F0E718B5002000904FF4A0443120FFF7F4
:100A4000DFFF0099491C00910099A14201D00028C4
:100A5000F4D03120FFF7D4FF08B1012018BD0020E9
:100A600018BDCE4A116821F0F80141EAC0001060BB
:100A70007047CE4908607047C849002270310A703B
:100A80000A70012804D0042801D10520087070479D
:100A9000012008707047C6490860704710B5029C75
:100AA00041EA82114FF0FF3202EB530241EA024168
:100AB000014341EA0460B949091D086010BDBB4902
:100AC00008667047800140EA0170B44984310860CB
:100AD0007047B64988667047800140EA0160AF49B7
:100AE00040EA0270883108607047B0490867704773
:100AF000AE49C8647047A94B08331A6822F0EC620B
:100B00000843104318607047A44B08331A6822F05A
:100B100078420843104318607047A04A08321168B1
:100B200021F003010143116070479C4808300068C0
:100B300000F00C007047994A0832116821F0F0016A
:100B4000014311607047954A0832116821F4E05161
:100B5000014311607047914A0832116821F46041E5
:100B600041EAC0001060704770B58C4B08331968BB
:100B700001F00C018F4C00291ED0661004291DD0F5
:100B800008291DD00460196801F0F00109098A4A9A
:100B9000545C0168E14041601C6804F4E054A40A1C
:100BA000145D21FA04F484601B6803F460435B0B5A
:100BB000D25CD140C16070BD0460E4E70660E2E74A
:100BC000764A121D1168C1F38055116801F03F018A
:100BD00035B1B6FBF1F11468C4F38814614305E044
:100BE000B4FBF1F11468C4F3881461431268C2F3D2
:100BF0000142521C5200B1FBF2F10160C3E7C0F3A5
:100C00000121032908D1654B0833196821F4F81232
:100C10006A49014011431960604A70321168C0F39B
:100C20000B00014311607047614944390860704707
:100C30005F49403908607047614908607047574A0A
:100C40008C32116821F01F01401E01431160704772
:100C5000524A8C32116821F4F851401E41EA0020BA
:100C6000106070474D4A8C32116821F440110143E5
:100C700011607047494A8C32116821F440010143E8
:100C800011607047454A8C32116821F440310143AC
:100C9000116070474B4908607047404A3032002964
:100CA00003D01168014311607047116881431160DE
:100CB00070473A4A3432002903D011680143116069
:100CC00070471168814311607047344A38320029F7
:100CD00003D01168014311607047116881431160AE
:100CE00070472E4A4032002903D011680143116039
:100CF00070471168814311607047284A44320029C7
:100D000003D011680143116070471168814311607D
:100D10007047224A1032002903D011680143116044
:100D2000704711688143116070471C4A14320029D2
:100D300003D011680143116070471168814311604D
:100D40007047164A1832002903D011680143116018
:100D500070471168814311607047104A20320029A2
:100D600003D011680143116070471168814311601D
:100D700070470A4A2432002903D0116801431160E8
:100D800070471168814311607047044A503200294E
:100D90001AD011680143116070470000003802400A
:100DA000FFFFF6EA10300024003000200000474228
:100DB000800E47420024F4001C000020FFFCFF0FBF
:100DC0005C014742E0114742116881431160E3E74B
:100DD0002E4A002903D0116801431160DCE7116835
:100DE00081431160D8E7294A121D002903D01168F8
:100DF00001431160D0E7116881431160CCE7234AB9
:100E00000C32002903D0116801431160C4E7116856
:100E100081431160C0E71D4A1032002903D01168D8
:100E200001431160B8E7116881431160B4E71749C5
:100E30001C31012804D0086820F008000860ABE7E6
:100E4000086840F008000860A6E7104A473A002901
:100E500003D01178014311709EE71178814311701E
:100E60009AE70A482030016841F08071016093E7F9
:100E700001460020054A483A12680A428CD00120F7
:100E80008AE702494639087086E700005438024074
:100E900010B5F949884209D101210846FFF769FFD9
:100EA0000021BDE810400120FFF763BFB0F1804F83
:100EB0000CD0F249884213D101210220FFF74DFFE7
:100EC0000021BDE810400220FFF747BF012108467E
:100ED000FFF743FF0021BDE810400120FFF73DBFB1
:100EE000E749884209D101210420FFF736FF00219C
:100EF000BDE810400420FFF730BFE249884209D125
:100F000001210820FFF729FF0021BDE8104008203B
:100F1000FFF723BFDC49884209D101211020FFF7E8
:100F20001CFF0021BDE810401020FFF716BFD74975
:100F3000884209D101212020FFF70FFF0021BDE8E1
:100F400010402020FFF709BFD149884209D1012173
:100F50000220FFF70EFF0021BDE810400220FFF73E
:100F600008BFCC4988420AD101210C042046FFF772
:100F700000FF2046BDE810400021FFF7FABEC64939
:100F800088420AD101214C042046FFF7F2FE204698
:100F9000BDE810400021FFF7ECBEC04988420AD1ED
:100FA00001218C042046FFF7E4FE2046BDE81040F6
:100FB0000021FFF7DEBEBA49884209D10121402055
:100FC000FFF7CBFE0021BDE810404020FFF7C5BE73
:100FD000B449884209D101218020FFF7BEFE0021DB
:100FE000BDE810408020FFF7B8BEAF4988420AD163
:100FF000841501212046FFF7B0FE2046BDE81040D1
:101000000021FFF7AABE10BD30B502889A4CA04D52
:10101000A0420DD0A8420BD0B0F1804F08D0974B22
:10102000984205D0964B984202D0964B984203D1F5
:1010300022F070034A881A43934B984206D0934B90
:10104000984203D022F440730A891A4302804A6806
:10105000C2620A880285A04201D0A84201D1897AE1
:1010600001860121818230BD4FF0FF3141600021B6
:1010700001800181418081727047018582827047C1
:10108000028822F070020A43028070474162704772
:10109000C1627047406A7047008D7047002904D0D4
:1010A000018841F0020101807047018821F00201AE
:1010B00001807047002904D0018841F004010180BB
:1010C0007047018821F0040101807047002904D095
:1010D000018841F0800101807047018821F0800182
:1010E00001807047028822F00802028002880A43C9
:1010F00002807047028822F44072028002880A430C
:1011000002807047002904D0018841F0010101806C
:101110007047018821F001010180704730B5028CD1
:1011200022F001020284058C8388028B22F0700277
:1011300022F003020C88144325F002028D89154326
:101140004A882A434C4DA84202D0514DA8420FD1A3
:1011500022F00805CA892A4322F004058A882A4316
:1011600023F4807323F400730D8A1D434B8A2B43B1
:101170008380048389684163028430BD70B5028C2A
:1011800022F010020284028C8388048B24F4E04451
:1011900024F440760D884FF6FF7404EA05253543A4
:1011A00022F020028E8904EA061616434A8804EAD1
:1011B00002123243304EB04202D0354EB04217D107
:1011C00022F08002CE8904EA0616164326F0400675
:1011D0008A8804EA0212324323F4806323F4006312
:1011E0000E8A04EA86061E434B8A04EA83033343CD
:1011F0008380058389688163028470BD70B5028C29
:1012000022F480720284028C8388848B24F0700420
:1012100024F003040D88254322F400728E894FF6D2
:10122000FF7404EA062616434A8804EA022232437F
:10123000114EB04202D0164EB04217D122F40066D1
:10124000CA8904EA0222324322F480668A8804EAC8
:101250000222324323F4805323F400530E8A04EA1B
:1012600006161E434B8A04EA0313334383808583A7
:101270008968C163028470BD000001400004004021
:1012800000080040000C0040001000400014004026
:10129000000401400040014000440140004801407A
:1012A00000180040001C00400020004070B5028C77
:1012B00022F480520284058C8288838B23F4E043DD
:1012C00023F440760C884FF6FF7303EA042434437A
:1012D00025F400558E8903EA06362E434D8803EA2D
:1012E00005353543FE4EB04202D0FE4EB04205D128
:1012F00022F480460A8A03EA82123243828084837F
:10130000896801640584B6E70021018041808180FD
:1013100081608181C18101824182704730B500F1D5
:10132000180301248C40058CA5430584002912D0A4
:10133000082910D0091FC1F34E001844016848F66F
:10134000FF731940016001684FF6FF7303EA022240
:101350001143016030BD03EB510001684FF68F73FC
:101360001940016001681143016030BD416370475D
:1013700081637047C163704701647047028B22F03C
:1013800070020A4302837047028B22F4E0424FF658
:10139000FF7303EA0121114301837047828B22F01E
:1013A00070020A4382837047828B22F4E0424FF638
:1013B000FF7303EA0121114381837047028B22F0FE
:1013C00008020A4302837047028B22F400624FF640
:1013D000FF7303EA0121114301837047828B22F0DE
:1013E00008020A4382837047828B22F400624FF620
:1013F000FF7303EA0121114381837047028B22F0BE
:1014000004020A4302837047028B22F480624FF683
:10141000FF7303EA0121114301837047828B22F09D
:1014200004020A4382837047828B22F480624FF663
:10143000FF7303EA0121114381837047028B22F07D
:1014400080020A4302837047028BC2F30E024FF6FA
:10145000FF7303EA0121114301837047828B22F05D
:1014600080020A4382837047828BC2F30E024FF6DA
:10147000FF7303EA0121114381837047028C22F03C
:1014800002020A4302847047028C22F008020A43D7
:1014900002847047028C22F020024FF6FF7303EAA9
:1014A0000111114301847047028C22F080024FF633
:1014B000FF7303EA0111114301847047028C22F487
:1014C00000724FF6FF7303EA012111430184704754
:1014D000028C22F400624FF6FF7303EA01211143EC
:1014E00001847047028C22F400524FF6FF7303EA26
:1014F000013111430184704710B501238B40048CE6
:101500009C430484038C8A401343038410BD10B5AC
:1015100004238B40048C9C430484038C8A40134333
:10152000038410BD828B22F440628283828B4FF64B
:10153000FF7303EA01210A438283704770B5048C6C
:1015400024F480540484858B068C4FF6FF7404EADF
:10155000013125F4734504EA02222A4304EA0333E5
:10156000134326F420420A4342F4805183830184CA
:1015700081E6828B22F00C028283828B0A43828373
:101580007047F0B5048C24F480740484868B058C39
:101590004FF6FF7707EA012426F0F30607EA031166
:1015A0001143314325F42062224342F48072818347
:1015B0000284F0BD028B22F440620283028B4FF65C
:1015C000FF7303EA01210A430283704770B5048C5C
:1015D00024F010040484058B068C4FF6FF7404EA93
:1015E000011125F4734504EA03332B4304EA022274
:1015F0001A4326F0A0030B4343F010010283018439
:1016000039E6028B22F00C020283028B0A4302832A
:10161000704770B5048C24F001040484058B048C9D
:1016200025F0F3054FF6FF7606EA031313432B4329
:1016300024F00A020A4342F00101038301841AE6FE
:1016400070B506460C4625886188A2882389002D3E
:101650000BD0042D11D0082D17D03046FFF76EFFA8
:10166000E1883046BDE870405CE73046FFF7D1FFC7
:10167000E1883046BDE87040C3E73046FFF7A6FF7B
:10168000E1883046BDE8704094E73046FFF779FFC7
:10169000E1883046BDE870406BE700210180418061
:1016A00001228280C180018170472DE9F041074607
:1016B0000C46002501266188002900D10225A28858
:1016C000012A00D1022620882389B0B13846FFF7CD
:1016D0007DFFE1883846FFF76DFF2389324603E03E
:1016E000000001400004014029463846FFF791FF01
:1016F000E1883846BDE8F04183E73846FFF789FFC7
:10170000E1883846FFF77DFF23893246294638466F
:10171000FFF75CFFE1883846BDE8F0414AE7406BDF
:101720007047806B7047C06B7047006C704710B596
:101730000A884B88CC881A438B8823431A430B8929
:101740001A434B8989891A430A43A0F8442010BDE3
:101750000021018041808180C1800181418181819E
:101760007047002905D030F8441F41F40041018042
:10177000704730F8441FC1F30E0101807047002903
:1017800004D0818841F0040181807047818821F074
:10179000040181807047002904D0818841F0010153
:1017A00081807047818821F0010181807047002A83
:1017B00003D082890A438281704782898A43828169
:1017C00070478182704702460020128A0A4200D088
:1017D00001207047C9430182704702460020138AE6
:1017E0000B4092890A40002B02D0002A00D0012031
:1017F0007047C943018270471143A0F848107047F1
:10180000002A03D082890A438281704782898A43F1
:1018100082817047002904D0818841F008018180CD
:101820007047818821F0080181807047018921F08B
:10183000070101817047028922F070020A43028188
:10184000704700B503461846FFF7F5FF188940F0CA
:101850000700188100BD70B50D4604461146602D85
:101860000CD001222046FFF7D4FE29462046FFF780
:10187000E2FF208940F007002081FCE4012220469D
:10188000FFF7A4FEF1E730B50489E4B24FF6FF7527
:1018900005EA032313430B432343038130BD10B5F3
:1018A00004462046FFF7EFFF208920F0070040F0B4
:1018B000070020F0700040F07000208110BD10B5CE
:1018C00004462046FFF7DFFF208940F48040208156
:1018D00010BD828822F07002828082880A43828052
:1018E0007047028922F00702028102890A430281BD
:1018F0007047028922F08002028102890A43028134
:10190000704770B50589048B068C25F007050D43DB
:101910004FF6FC410C4040F201110C4326F0220628
:101920004FF6FF7101EA031111433143058104832E
:101930000184A0E4002904D0818841F080018180E5
:101940007047818821F0800181807047A0F8501095
:101950007047000010B5F449884209D101211020D8
:10196000FFF707FA0021BDE810401020FFF701BA89
:10197000EE4988420AD101214C042046FFF7EDF9D7
:101980002046BDE810400021FFF7E7B9E84988424A
:101990000AD101218C042046FFF7DFF92046BDE87B
:1019A00010400021FFF7D9B9E24988420AD101214C
:1019B000CC042046FFF7D1F92046BDE810400021B5
:1019C000FFF7CBB9DC4988420AD101210C0520463A
:1019D000FFF7C3F92046BDE810400021FFF7BDB96D
:1019E000D649884209D101212020FFF7C2F9002100
:1019F000BDE810402020FFF7BCB9D14988420AD188
:101A000001218C072046FFF7A8F92046BDE81040C9
:101A10000021FFF7A2B9CB4988420AD14405012130
:101A20002046FFF79AF92046BDE810400021FFF755
:101A300094B910BD7FB504460D46208A20F440516C
:101A4000E88808432082A08941F20C618843A98874
:101A50002A8911436A8902431143A181A08A20F493
:101A60004071A8890843A0826846FFF77DF8AE4818
:101A7000844202D0B148844201D1039800E0029828
:101A8000A189090408D500EBC00101EB0010296809
:101A90004900B0FBF1F007E000EBC00101EB0010E2
:101AA00029688900B0FBF1F06422B0FBF2F1090172
:101AB0000B096FF018056B4300EB8300A3891D042D
:101AC0004FF0320307D503EBC000B0FBF2F000F09B
:101AD0000700084306E003EB0010B0FBF2F000F053
:101AE0000F00084320817FBD4FF416510160002193
:101AF0008180C18001810C2242818181704710B5B3
:101B0000028A22F470630A884C8822438C88C98830
:101B10000C4322431A43028210BD00210180418000
:101B20008180C1807047002904D0818941F400512F
:101B300081817047818921F4005181817047028B36
:101B400002F47F420283028B0A430283704700291A
:101B500004D0818941F40041818170478189C1F3BA
:101B60000E0181817047002904D0818A41F400610F
:101B700081827047818A21F4006181827047C1F3BC
:101B80000801818070478088C0F308007047028A8E
:101B900022F00F020282028A0A4302827047002961
:101BA00004D0818941F0020181817047818921F04F
:101BB000020181817047828922F4006282818289D8
:101BC0000A4382817047028A22F020020282028A3E
:101BD0000A4302827047002904D0018A41F48041FF
:101BE00001827047018A21F4804101827047818916
:101BF00041F0010181817047002904D0818A41F0C0
:101C0000080181827047818A21F008018182704732
:101C1000028BD2B20283028B42EA01210183704718
:101C2000002904D0818A41F0200181827047818A95
:101C300021F0200181827047002904D0818A41F07F
:101C4000100181827047818A21F0100181827047E2
:101C5000828A22F004028282828A0A438282704748
:101C6000002904D0818A41F0020181827047818A73
:101C700021F0020181827047002A03D0828A0A4340
:101C800082827047828A8A438282704710B540F60A
:101C90006A13C1F3421301F01F040121A140012B7B
:101CA00007D0022B07D014303AB102680A43026011
:101CB00010BD0C30F8E71030F6E702688A43026086
:101CC00010BD0246002012880A4200D00120704751
:101CD0008A05C9430180704770B5002440F66A1236
:101CE000C1F3421301F01F05012606FA05F2012B8C
:101CF0000CD0022B0DD0838A1340090A8E40008835
:101D000030400BB100B10124204670BD83891340DF
:101D1000F3E7038A1340F0E740F66A120A0A01214A
:101D20009140C943018070470010014000440040C9
:101D300000480040004C00400050004000140140AA
:101D400000780040007C004010B504466FF00400AD
:101D5000FEF7E7FC2949E008087000EB4002C2EBFF
:101D6000C0104FF6FF7202EAC000488010BD234940
:101D7000097848434FF0E021486100238B610869EE
:101D800040F0010008610869C20701D0C003FAD51C
:101D9000086920F0010008618B6170471749498884
:101DA00048434FF0E021486100238B61086940F00F
:101DB000010008610869C20701D0C003FAD50869AB
:101DC00020F0010008618B61704770B54FF4077512
:101DD000B0FBF5F1CCB2B0FBF5F105FB110604E068
:101DE0002846FFF7DBFF641EE4B2002CF8D1002E7A
:101DF00003D03046BDE87040D0E770BD2C00002015
:101E0000704745490A885206FCD5C2B28A8070479D
:101E1000F0B587B0054601210846FEF73EFF0121D7
:101E20001020FEF76AFF3D4F072209213846FEF7D2
:101E300099FD07220A213846FEF794FD4FF4C06051
:101E4000059002208DF818008DF8190000248DF8F7
:101E50001A4001268DF81B6005A93846FEF70AFDD9
:101E60000195ADF80840ADF80A40ADF80C40ADF86A
:101E700010400C20ADF80E00274C01A92046FFF7BA
:101E8000D9FD01212046FFF74EFE40212046FFF7F5
:101E90001FFF012240F225512046FFF7F7FE2520C3
:101EA0008DF8000003208DF801008DF802008DF8F8
:101EB00003606846FEF7F1FB07B0F0BD70B5164C45
:101EC00040F225512046FFF707FF00280ED020469C
:101ED000FFF759FEC1B2124A1088030406D4440425
:101EE0004FF0000307D50A2901D0138070BD40F4DC
:101EF0000040108070BD0D290AD00A4DC0F30D04BA
:101F00002955401C80B21080C728F3D9138070BDBA
:101F100040F48040108070BD00100140000002407D
:101F200030000020380000202DE9F0418AB006463C
:101F30000D4601210220FEF7D4FE01210846FEF7DE
:101F4000ACFEDFF82881022206214046FEF70AFD9A
:101F50004020089002208DF8240003208DF82500F1
:101F600000248DF8264001278DF8277008A94046E7
:101F7000FEF780FCADF81450ADF816400696ADF8AB
:101F80001C403B4D05A92846FFF73EF86021ADF8FF
:101F90000010ADF80270ADF80C4069462846FFF716
:101FA000BDF808212846FFF709FA01212846FFF766
:101FB0008DF801212846FFF7A5F80AB0BDE8F081A9
:101FC0002DE9F0418AB080460E4601210846FEF711
:101FD00088FE01210846FEF760FE244F0122002101
:101FE0003846FEF7BFFC0125089502208DF8240035
:101FF00003208DF8250000248DF826408DF8275009
:1020000008A93846FEF736FCADF81460ADF8164066
:10201000CDF81880ADF81C40AE0705A93046FEF794
:10202000F3FF6021ADF80010ADF80250ADF80C40A0
:1020300069463046FFF772F880213046FFF759FCB9
:1020400040213046FFF745FC01213046FFF75AF8A2
:1020500008213046FFF7B2F901213046FFF736F884
:102060004FF47A713046FFF781F9A6E7000002408D
:10207000000400407FB504460D4601210220FEF712
:1020800030FE0294ADF804500024ADF80640ADF8DF
:102090000C40384D01A92846FEF7B6FF0122114633
:1020A0002846FFF784FB01212846FFF72BF81D2067
:1020B0008DF8000004208DF801008DF80240012009
:1020C0008DF803006846FEF7E8FA7FBD7FB5044649
:1020D0000D4601210820FEF704FE0294ADF80450DD
:1020E0000024ADF80640ADF80C40234D01A9284668
:1020F000FEF78AFF012211462846FFF758FB01210F
:102100002846FEF7FFFF32208DF8000005208DF8ED
:1021100001008DF8024001208DF803006846FEF7AB
:10212000BCFA7FBD10B5134C01212046FFF755FBCB
:102130002046BDE810400121FFF75BBB70B50E4D96
:1021400001212846FFF749FB01280CD10B4C002048
:10215000207000F033F800F0C8F8012803D1207097
:102160002846FEF795FE2846BDE870400121FFF79E
:1021700040BB000000040040000C00403200002082
:102180001CB501210220FEF788FD012000908DF88A
:10219000040000208DF8060003218DF805108DF84D
:1021A000070069460748FEF765FB1CBD012105488D
:1021B000FEF7CABB01210348FEF7C4BB0121014859
:1021C000FEF7CCBB000402401CB501211120FEF734
:1021D00064FD1E20009000208DF8040003208DF87F
:1021E000050001208DF8070069462F48FEF742FBE5
:1021F0001CBD70B501252D4C002800D0257020781D
:10220000294E98B102213046FEF788FBA8B104217F
:102210003046FEF783FB80B108213046FEF77EFB97
:1022200058B110213046FEF779FB30B1022130461B
:10223000FEF774FB012822D034E00A20FFF7C5FD29
:102240000020207002213046FEF768FB78B104219F
:102250003046FEF763FB60B108213046FEF75EFBB7
:1022600048B110213046FEF759FB30B11AE0012089
:1022700070BD022070BD032070BD042070BD04211C
:102280003046FEF74BFB01280CD108213046FEF703
:1022900045FB012806D110213046FEF73FFB0128FF
:1022A00000D12570002070BD0000024034000020E5
:1022B0001CB501210420FEF7F0FC16200090002040
:1022C0008DF8040003208DF8050002208DF807002A
:1022D00069460848FEF7CEFA1CBD02210548FEF704
:1022E0001DBB04210348FEF719BB10210148FEF76E
:1022F00015BB0000000802401CB501210420FEF7B8
:10230000CCFC0820009001208DF8040000208DF8FE
:10231000060003208DF8050002208DF807006946AD
:102320000548FEF7A7FA1CBD08210348FEF70ABBC3
:1023300008210148FEF708BB0008024010B504461A
:1023400080211A48FEF700FB2146BDE810401848DE
:10235000FFF70CB81CB501210846FEF79EFC802053
:10236000009001208DF8040000208DF80600032164
:102370008DF805108DF8070069460C48FEF77AFACB
:10238000532142F20F70FFF7CFFD0020FFF7D6FF79
:102390001CBD10B5044680210448FEF7D3FA21463F
:1023A000BDE810400248FEF7E1BF00000000024017
:1023B0000004004010B5532144F61F60FFF700FEF3
:1023C000BDE8104040F2AF514FF08040FEF7CEBF65
:1023D00010B5002809DA00F0D7F89FED0D1B53EC7B
:1023E000112B00F05FF800F0E0F84FF4C87188425C
:1023F00001DD084603E00849884200DA084600F299
:10240000AF51BDE810404FF08040FEF7AFBF000075
:10241000EC51B81E85EBF93F78FDFFFF10B586B093
:1024200001210420FEF75DFC01211020FEF735FCA0
:102430000120019002218DF808108DF80B00032077
:102440008DF80900154C01A92046FEF713FA022267
:1024500000212046FEF786FA4FF6FF700490002018
:10246000ADF80C00ADF81400ADF80E000C4C03A94B
:102470002046FEF7C9FD00231A4619462046FFF7FD
:102480001EFA01212046FEF73DFE2046FEF702FE21
:1024900000212046FEF7FAFD06B010BD00100240F4
:1024A000000800402DE9FE4F81EA030404F00044D7
:1024B00021F0004100944FF0000B23F0004350EA5C
:1024C00001045ED052EA03045BD0C3F30A54C1F3A3
:1024D0000A552C44A4F2F3340194A0FB0254C1F336
:1024E000130141F48011C3F3130343F4801301FB80
:1024F000024400FB034E840A970A44EA815447EAE7
:102500008357A4FB076802958D0A05FB07854FEAF0
:10251000932C04FB0C542705029D4FEA065847EA0A
:102520001637B5EB08056EEB070C870E920E47EADF
:10253000811742EA8312A7FB0201B6EB0B0164EBA1
:1025400000042B0D43EA0C335E1844EB1C50DA46B2
:102550005146E7FB0201C5F313044FEA0B3343EA8C
:1025600014534FEA0432019C43EA0603A4F10C041D
:102570000294009CCDE900B400F064F803B0BDE81B
:10258000F08F00200146F9E70EB5C10F80EAE07038
:102590000844CA07002140F233438DE80E000A4682
:1025A0000B4600F04FF803B000BD70B5C1F30A52FE
:1025B00001F000450024C1F3130140F2FF3341F460
:1025C00080119A4201DA002070BD40F233439A42F2
:1025D000A2F2334203DC524200F015F800E09040D2
:1025E0002C43F1D0404270BD202A04DB203A00FA8F
:1025F00002F1002070479140C2F1200320FA03F35A
:10260000194390407047202A04DB203A21FA02F057
:102610000021704721FA02F3D040C2F1200291401C
:1026200008431946704710B5141E73F1000408DA08
:10263000401C41F1000192185B411A4301D120F086
:10264000010010BD2DE9F04D92469B4611B1B1FA43
:1026500081F202E0B0FA80F220329046FFF7C4FF28
:1026600004460F4640EA0A0041EA0B0153465A4627
:10267000084313D0114653EA010019D0C8F14002B3
:102680005046FFF7C0FF05460E46504659464246A3
:10269000FFF7AAFF084305D0012004E02046394691
:1026A000BDE8F08D0020054346EAE0762C43374331
:1026B0000A986305E40AA0EB08000022FD0A44EA38
:1026C00047540A3002D500200146E9E701051019F8
:1026D0006941DDE9084500196941BDE8F04DA2E70F
:1026E000064C074D06E0E06840F0010394E807005F
:1026F00098471034AC42F6D3FDF74AFD2427000872
:102700004427000802E008C8121F08C1002AFAD1B5
:1027100070477047002001E001C1121F002AFBD161
:102720007047000044270008000000203800000027
:10273000042700087C27000838000020C804000097
:10274000142700080000000000000000007A030ABF
:102750000000000000000000010203040607080951
:102760000000000001020304010203040607080937
:0C2770000000000000000000010000005C
:040000050800018965
:00000001FF
